{
  "abi": [
    {
      "inputs": [
        {
          "internalType": "contract UltraVerifier",
          "name": "_verifier",
          "type": "address"
        }
      ],
      "stateMutability": "nonpayable",
      "type": "constructor"
    },
    {
      "inputs": [],
      "name": "verifier",
      "outputs": [
        {
          "internalType": "contract UltraVerifier",
          "name": "",
          "type": "address"
        }
      ],
      "stateMutability": "view",
      "type": "function"
    },
    {
      "inputs": [
        {
          "internalType": "bytes",
          "name": "proof",
          "type": "bytes"
        },
        {
          "internalType": "bytes32[]",
          "name": "y",
          "type": "bytes32[]"
        }
      ],
      "name": "verifyEqual",
      "outputs": [
        {
          "internalType": "bool",
          "name": "",
          "type": "bool"
        }
      ],
      "stateMutability": "view",
      "type": "function"
    }
  ],
  "bytecode": {
    "object": "0x608060405234801561001057600080fd5b5060405161040e38038061040e83398101604081905261002f91610054565b600080546001600160a01b0319166001600160a01b0392909216919091179055610084565b60006020828403121561006657600080fd5b81516001600160a01b038116811461007d57600080fd5b9392505050565b61037b806100936000396000f3fe608060405234801561001057600080fd5b50600436106100365760003560e01c80632b7ac3f31461003b5780637d08867e14610085575b600080fd5b60005461005b9073ffffffffffffffffffffffffffffffffffffffff1681565b60405173ffffffffffffffffffffffffffffffffffffffff90911681526020015b60405180910390f35b6100986100933660046101bc565b6100a8565b604051901515815260200161007c565b600080546040517fea50d0e4000000000000000000000000000000000000000000000000000000008152829173ffffffffffffffffffffffffffffffffffffffff169063ea50d0e490610105908990899089908990600401610281565b602060405180830381865afa158015610122573d6000803e3d6000fd5b505050506040513d601f19601f82011682018060405250810190610146919061031c565b9050806101b3576040517f08c379a000000000000000000000000000000000000000000000000000000000815260206004820152601260248201527f50726f6f66206973206e6f742076616c69640000000000000000000000000000604482015260640160405180910390fd5b95945050505050565b600080600080604085870312156101d257600080fd5b843567ffffffffffffffff808211156101ea57600080fd5b818701915087601f8301126101fe57600080fd5b81358181111561020d57600080fd5b88602082850101111561021f57600080fd5b60209283019650945090860135908082111561023a57600080fd5b818701915087601f83011261024e57600080fd5b81358181111561025d57600080fd5b8860208260051b850101111561027257600080fd5b95989497505060200194505050565b604081528360408201528385606083013760006060858301015260007fffffffffffffffffffffffffffffffffffffffffffffffffffffffffffffffe0601f860116820160608382030160208401528360608201527f07ffffffffffffffffffffffffffffffffffffffffffffffffffffffffffffff84111561030357600080fd5b8360051b80866080840137016080019695505050505050565b60006020828403121561032e57600080fd5b8151801515811461033e57600080fd5b939250505056fea2646970667358221220abe8b0f7690c402041456447afa877b56d20fcc23ca9341cf67e1ab7cfc7eb2564736f6c63430008140033",
    "linkReferences": {}
  },
  "methodIdentifiers": {
    "verifier()": "2b7ac3f3",
    "verifyEqual(bytes,bytes32[])": "7d08867e"
  },
  "id": 1
}