{
  "abi": [
    {
      "inputs": [
        {
          "internalType": "contract UltraVerifier",
          "name": "_verifier",
          "type": "address"
        }
      ],
      "stateMutability": "nonpayable",
      "type": "constructor"
    },
    {
      "inputs": [],
      "name": "verifier",
      "outputs": [
        {
          "internalType": "contract UltraVerifier",
          "name": "",
          "type": "address"
        }
      ],
      "stateMutability": "view",
      "type": "function"
    },
    {
      "inputs": [
        {
          "internalType": "bytes",
          "name": "proof",
          "type": "bytes"
        },
        {
          "internalType": "bytes32[]",
          "name": "y",
          "type": "bytes32[]"
        }
      ],
      "name": "verifyEqual",
      "outputs": [
        {
          "internalType": "bool",
          "name": "",
          "type": "bool"
        }
      ],
      "stateMutability": "view",
      "type": "function"
    }
  ],
  "bytecode": {
    "object": "0x608060405234801561001057600080fd5b5060405161037238038061037283398101604081905261002f91610054565b600080546001600160a01b0319166001600160a01b0392909216919091179055610084565b60006020828403121561006657600080fd5b81516001600160a01b038116811461007d57600080fd5b9392505050565b6102df806100936000396000f3fe608060405234801561001057600080fd5b50600436106100365760003560e01c80632b7ac3f31461003b5780637d08867e1461006b575b600080fd5b60005461004e906001600160a01b031681565b6040516001600160a01b0390911681526020015b60405180910390f35b61007e610079366004610157565b61008e565b6040519015158152602001610062565b60008054604051633a94343960e21b815282916001600160a01b03169063ea50d0e4906100c590899089908990899060040161021c565b602060405180830381865afa1580156100e2573d6000803e3d6000fd5b505050506040513d601f19601f820116820180604052508101906101069190610280565b90508061014e5760405162461bcd60e51b8152602060048201526012602482015271141c9bdbd9881a5cc81b9bdd081d985b1a5960721b604482015260640160405180910390fd5b95945050505050565b6000806000806040858703121561016d57600080fd5b843567ffffffffffffffff8082111561018557600080fd5b818701915087601f83011261019957600080fd5b8135818111156101a857600080fd5b8860208285010111156101ba57600080fd5b6020928301965094509086013590808211156101d557600080fd5b818701915087601f8301126101e957600080fd5b8135818111156101f857600080fd5b8860208260051b850101111561020d57600080fd5b95989497505060200194505050565b6040815283604082015283856060830137600060608583018101829052601f19601f8701168301838103820160208501529081018490526001600160fb1b0384111561026757600080fd5b8360051b80866080840137016080019695505050505050565b60006020828403121561029257600080fd5b815180151581146102a257600080fd5b939250505056fea2646970667358221220b7c87cbbfeacd843cde382a7a83afd2b90af938326202682ab7f9eb18185d2bf64736f6c63430008140033",
    "linkReferences": {}
  },
  "methodIdentifiers": {
    "verifier()": "2b7ac3f3",
    "verifyEqual(bytes,bytes32[])": "7d08867e"
  },
  "id": 4
}