{
  "abi": [
    {
      "inputs": [
        {
          "internalType": "contract UltraVerifier",
          "name": "_verifier",
          "type": "address"
        },
        {
          "internalType": "contract ERC20",
          "name": "_ghoToken",
          "type": "address"
        }
      ],
      "stateMutability": "nonpayable",
      "type": "constructor"
    },
    {
      "inputs": [],
      "name": "ghoToken",
      "outputs": [
        {
          "internalType": "contract ERC20",
          "name": "",
          "type": "address"
        }
      ],
      "stateMutability": "view",
      "type": "function"
    },
    {
      "inputs": [],
      "name": "ghoTokenAddress",
      "outputs": [
        {
          "internalType": "address",
          "name": "",
          "type": "address"
        }
      ],
      "stateMutability": "view",
      "type": "function"
    },
    {
      "inputs": [
        {
          "internalType": "bytes32",
          "name": "sum",
          "type": "bytes32"
        },
        {
          "internalType": "uint256",
          "name": "value",
          "type": "uint256"
        }
      ],
      "name": "registerAndApprove",
      "outputs": [],
      "stateMutability": "nonpayable",
      "type": "function"
    },
    {
      "inputs": [
        {
          "internalType": "address",
          "name": "",
          "type": "address"
        }
      ],
      "name": "registeredUsers",
      "outputs": [
        {
          "internalType": "bytes32",
          "name": "",
          "type": "bytes32"
        }
      ],
      "stateMutability": "view",
      "type": "function"
    },
    {
      "inputs": [
        {
          "internalType": "bytes",
          "name": "proof",
          "type": "bytes"
        },
        {
          "internalType": "address",
          "name": "recipient",
          "type": "address"
        },
        {
          "internalType": "address",
          "name": "sender",
          "type": "address"
        },
        {
          "internalType": "uint256",
          "name": "amount",
          "type": "uint256"
        },
        {
          "internalType": "bytes32[]",
          "name": "y",
          "type": "bytes32[]"
        }
      ],
      "name": "transferGhoTokens",
      "outputs": [],
      "stateMutability": "nonpayable",
      "type": "function"
    },
    {
      "inputs": [],
      "name": "verifier",
      "outputs": [
        {
          "internalType": "contract UltraVerifier",
          "name": "",
          "type": "address"
        }
      ],
      "stateMutability": "view",
      "type": "function"
    },
    {
      "inputs": [
        {
          "internalType": "bytes",
          "name": "proof",
          "type": "bytes"
        },
        {
          "internalType": "bytes32[]",
          "name": "y",
          "type": "bytes32[]"
        }
      ],
      "name": "verifyEqual",
      "outputs": [
        {
          "internalType": "bool",
          "name": "",
          "type": "bool"
        }
      ],
      "stateMutability": "view",
      "type": "function"
    }
  ],
  "bytecode": {
    "object": "0x6080604052600080546001600160a01b03191673c4bf5cbdabe595361438f8c6a187bdc330539c6017905534801561003657600080fd5b506040516107ea3803806107ea8339810160408190526100559161009e565b600280546001600160a01b039384166001600160a01b031991821617909155600380549290931691161790556100d8565b6001600160a01b038116811461009b57600080fd5b50565b600080604083850312156100b157600080fd5b82516100bc81610086565b60208401519092506100cd81610086565b809150509250929050565b610703806100e76000396000f3fe608060405234801561001057600080fd5b506004361061007d5760003560e01c80635996db911161005b5780635996db91146100f557806370af3956146101085780637d08867e1461011b5780639f017ba11461013e57600080fd5b8063031bb683146100825780630e50cee5146100975780632b7ac3f3146100ca575b600080fd5b6100956100903660046104f9565b610151565b005b6100b76100a5366004610597565b60016020526000908152604090205481565b6040519081526020015b60405180910390f35b6002546100dd906001600160a01b031681565b6040516001600160a01b0390911681526020016100c1565b6003546100dd906001600160a01b031681565b6000546100dd906001600160a01b031681565b61012e6101293660046105b9565b61029c565b60405190151581526020016100c1565b61009561014c366004610625565b610365565b600254604051633a94343960e21b81526000916001600160a01b03169063ea50d0e490610188908b908b9088908890600401610647565b602060405180830381865afa1580156101a5573d6000803e3d6000fd5b505050506040513d601f19601f820116820180604052508101906101c991906106ab565b9050806102125760405162461bcd60e51b8152602060048201526012602482015271141c9bdbd9881a5cc81b9bdd081d985b1a5960721b60448201526064015b60405180910390fd5b6003546040516323b872dd60e01b81526001600160a01b038781166004830152888116602483015260448201879052909116906323b872dd906064016020604051808303816000875af115801561026d573d6000803e3d6000fd5b505050506040513d601f19601f8201168201806040525081019061029191906106ab565b505050505050505050565b600254604051633a94343960e21b815260009182916001600160a01b039091169063ea50d0e4906102d7908990899089908990600401610647565b602060405180830381865afa1580156102f4573d6000803e3d6000fd5b505050506040513d601f19601f8201168201806040525081019061031891906106ab565b90508061035c5760405162461bcd60e51b8152602060048201526012602482015271141c9bdbd9881a5cc81b9bdd081d985b1a5960721b6044820152606401610209565b95945050505050565b33600090815260016020526040902054156103c25760405162461bcd60e51b815260206004820152601760248201527f5573657220616c726561647920726567697374657265640000000000000000006044820152606401610209565b3360009081526001602052604090819020839055600354905163095ea7b360e01b8152306004820152602481018390526001600160a01b039091169063095ea7b3906044016020604051808303816000875af1158015610426573d6000803e3d6000fd5b505050506040513d601f19601f8201168201806040525081019061044a91906106ab565b505050565b60008083601f84011261046157600080fd5b50813567ffffffffffffffff81111561047957600080fd5b60208301915083602082850101111561049157600080fd5b9250929050565b80356001600160a01b03811681146104af57600080fd5b919050565b60008083601f8401126104c657600080fd5b50813567ffffffffffffffff8111156104de57600080fd5b6020830191508360208260051b850101111561049157600080fd5b600080600080600080600060a0888a03121561051457600080fd5b873567ffffffffffffffff8082111561052c57600080fd5b6105388b838c0161044f565b909950975087915061054c60208b01610498565b965061055a60408b01610498565b955060608a0135945060808a013591508082111561057757600080fd5b506105848a828b016104b4565b989b979a50959850939692959293505050565b6000602082840312156105a957600080fd5b6105b282610498565b9392505050565b600080600080604085870312156105cf57600080fd5b843567ffffffffffffffff808211156105e757600080fd5b6105f38883890161044f565b9096509450602087013591508082111561060c57600080fd5b50610619878288016104b4565b95989497509550505050565b6000806040838503121561063857600080fd5b50508035926020909101359150565b6040815283604082015283856060830137600060608583018101829052601f19601f8701168301838103820160208501529081018490526001600160fb1b0384111561069257600080fd5b8360051b80866080840137016080019695505050505050565b6000602082840312156106bd57600080fd5b815180151581146105b257600080fdfea26469706673582212204c70ddec4d9f985eadd613cade5f84e307df03ce9b10237624674df919719c8264736f6c63430008140033",
    "linkReferences": {}
  },
  "methodIdentifiers": {
    "ghoToken()": "5996db91",
    "ghoTokenAddress()": "70af3956",
    "registerAndApprove(bytes32,uint256)": "9f017ba1",
    "registeredUsers(address)": "0e50cee5",
    "transferGhoTokens(bytes,address,address,uint256,bytes32[])": "031bb683",
    "verifier()": "2b7ac3f3",
    "verifyEqual(bytes,bytes32[])": "7d08867e"
  },
  "id": 1
}