{
  "abi": [
    {
      "inputs": [
        {
          "internalType": "contract UltraVerifier",
          "name": "_verifier",
          "type": "address"
        },
        {
          "internalType": "contract ERC20",
          "name": "_ghoToken",
          "type": "address"
        }
      ],
      "stateMutability": "nonpayable",
      "type": "constructor"
    },
    {
      "inputs": [],
      "name": "ghoToken",
      "outputs": [
        {
          "internalType": "contract ERC20",
          "name": "",
          "type": "address"
        }
      ],
      "stateMutability": "view",
      "type": "function"
    },
    {
      "inputs": [],
      "name": "ghoTokenAddress",
      "outputs": [
        {
          "internalType": "address",
          "name": "",
          "type": "address"
        }
      ],
      "stateMutability": "view",
      "type": "function"
    },
    {
      "inputs": [
        {
          "internalType": "uint32",
          "name": "sum",
          "type": "uint32"
        },
        {
          "internalType": "uint256",
          "name": "value",
          "type": "uint256"
        }
      ],
      "name": "registerAndApprove",
      "outputs": [],
      "stateMutability": "nonpayable",
      "type": "function"
    },
    {
      "inputs": [
        {
          "internalType": "address",
          "name": "",
          "type": "address"
        }
      ],
      "name": "registeredUsers",
      "outputs": [
        {
          "internalType": "uint32",
          "name": "",
          "type": "uint32"
        }
      ],
      "stateMutability": "view",
      "type": "function"
    },
    {
      "inputs": [
        {
          "internalType": "bytes",
          "name": "proof",
          "type": "bytes"
        },
        {
          "internalType": "address",
          "name": "recipient",
          "type": "address"
        },
        {
          "internalType": "uint256",
          "name": "amount",
          "type": "uint256"
        },
        {
          "internalType": "uint32",
          "name": "sum",
          "type": "uint32"
        }
      ],
      "name": "transferGhoTokens",
      "outputs": [],
      "stateMutability": "nonpayable",
      "type": "function"
    },
    {
      "inputs": [],
      "name": "verifier",
      "outputs": [
        {
          "internalType": "contract UltraVerifier",
          "name": "",
          "type": "address"
        }
      ],
      "stateMutability": "view",
      "type": "function"
    },
    {
      "inputs": [
        {
          "internalType": "bytes",
          "name": "proof",
          "type": "bytes"
        },
        {
          "internalType": "bytes32[]",
          "name": "y",
          "type": "bytes32[]"
        }
      ],
      "name": "verifyEqual",
      "outputs": [
        {
          "internalType": "bool",
          "name": "",
          "type": "bool"
        }
      ],
      "stateMutability": "view",
      "type": "function"
    }
  ],
  "bytecode": {
    "object": "0x6080604052600080546001600160a01b03191673c4bf5cbdabe595361438f8c6a187bdc330539c6017905534801561003657600080fd5b506040516109313803806109318339810160408190526100559161009e565b600280546001600160a01b039384166001600160a01b031991821617909155600380549290931691161790556100d8565b6001600160a01b038116811461009b57600080fd5b50565b600080604083850312156100b157600080fd5b82516100bc81610086565b60208401519092506100cd81610086565b809150509250929050565b61084a806100e76000396000f3fe608060405234801561001057600080fd5b506004361061007d5760003560e01c806370af39561161005b57806370af3956146101005780637d08867e14610113578063b03bf79c14610136578063be98d0161461014b57600080fd5b80630e50cee5146100825780632b7ac3f3146100c25780635996db91146100ed575b600080fd5b6100a861009036600461055c565b60016020526000908152604090205463ffffffff1681565b60405163ffffffff90911681526020015b60405180910390f35b6002546100d5906001600160a01b031681565b6040516001600160a01b0390911681526020016100b9565b6003546100d5906001600160a01b031681565b6000546100d5906001600160a01b031681565b6101266101213660046105c7565b61015e565b60405190151581526020016100b9565b610149610144366004610675565b61022c565b005b6101496101593660046106e4565b610440565b600254604051633a94343960e21b815260009182916001600160a01b039091169063ea50d0e490610199908990899089908990600401610737565b602060405180830381865afa1580156101b6573d6000803e3d6000fd5b505050506040513d601f19601f820116820180604052508101906101da9190610783565b9050806102235760405162461bcd60e51b8152602060048201526012602482015271141c9bdbd9881a5cc81b9bdd081d985b1a5960721b60448201526064015b60405180910390fd5b95945050505050565b60608163ffffffff1660001b8160008151811061024b5761024b6107a5565b6020908102919091010152600254604051633a94343960e21b81526000916001600160a01b03169063ea50d0e49061028b908a908a9087906004016107bb565b602060405180830381865afa1580156102a8573d6000803e3d6000fd5b505050506040513d601f19601f820116820180604052508101906102cc9190610783565b9050806103105760405162461bcd60e51b8152602060048201526012602482015271141c9bdbd9881a5cc81b9bdd081d985b1a5960721b604482015260640161021a565b3360009081526001602052604090205463ffffffff84811691161461036d5760405162461bcd60e51b8152602060048201526013602482015272155cd95c881b9bdd081c9959da5cdd195c9959606a1b604482015260640161021a565b8263ffffffff166000036103b95760405162461bcd60e51b8152602060048201526013602482015272155cd95c881b9bdd081c9959da5cdd195c9959606a1b604482015260640161021a565b6003546040516323b872dd60e01b81523360048201526001600160a01b03878116602483015260448201879052909116906323b872dd906064016020604051808303816000875af1158015610412573d6000803e3d6000fd5b505050506040513d601f19601f820116820180604052508101906104369190610783565b5050505050505050565b3360009081526001602052604090205463ffffffff16156104a35760405162461bcd60e51b815260206004820152601760248201527f5573657220616c72656164792072656769737465726564000000000000000000604482015260640161021a565b3360009081526001602052604090819020805463ffffffff191663ffffffff8516179055600354905163095ea7b360e01b8152306004820152602481018390526001600160a01b039091169063095ea7b3906044016020604051808303816000875af1158015610517573d6000803e3d6000fd5b505050506040513d601f19601f8201168201806040525081019061053b9190610783565b505050565b80356001600160a01b038116811461055757600080fd5b919050565b60006020828403121561056e57600080fd5b61057782610540565b9392505050565b60008083601f84011261059057600080fd5b50813567ffffffffffffffff8111156105a857600080fd5b6020830191508360208285010111156105c057600080fd5b9250929050565b600080600080604085870312156105dd57600080fd5b843567ffffffffffffffff808211156105f557600080fd5b6106018883890161057e565b9096509450602087013591508082111561061a57600080fd5b818701915087601f83011261062e57600080fd5b81358181111561063d57600080fd5b8860208260051b850101111561065257600080fd5b95989497505060200194505050565b803563ffffffff8116811461055757600080fd5b60008060008060006080868803121561068d57600080fd5b853567ffffffffffffffff8111156106a457600080fd5b6106b08882890161057e565b90965094506106c3905060208701610540565b9250604086013591506106d860608701610661565b90509295509295909350565b600080604083850312156106f757600080fd5b61070083610661565b946020939093013593505050565b81835281816020850137506000828201602090810191909152601f909101601f19169091010190565b60408152600061074b60408301868861070e565b82810360208401528381526001600160fb1b0384111561076a57600080fd5b8360051b80866020840137016020019695505050505050565b60006020828403121561079557600080fd5b8151801515811461057757600080fd5b634e487b7160e01b600052603260045260246000fd5b6040815260006107cf60408301858761070e565b82810360208481019190915284518083528582019282019060005b81811015610806578451835293830193918301916001016107ea565b50909897505050505050505056fea2646970667358221220bc52b45f204bedbf4b28da6743f90e14178a5b40c83ea0ee1a85f3924827a1a364736f6c63430008140033",
    "linkReferences": {}
  },
  "methodIdentifiers": {
    "ghoToken()": "5996db91",
    "ghoTokenAddress()": "70af3956",
    "registerAndApprove(uint32,uint256)": "be98d016",
    "registeredUsers(address)": "0e50cee5",
    "transferGhoTokens(bytes,address,uint256,uint32)": "b03bf79c",
    "verifier()": "2b7ac3f3",
    "verifyEqual(bytes,bytes32[])": "7d08867e"
  },
  "id": 1
}