{
  "abi": [
    {
      "inputs": [
        {
          "internalType": "contract UltraVerifier",
          "name": "_verifier",
          "type": "address"
        }
      ],
      "stateMutability": "nonpayable",
      "type": "constructor"
    },
    {
      "inputs": [],
      "name": "ghoTokenAddress",
      "outputs": [
        {
          "internalType": "address",
          "name": "",
          "type": "address"
        }
      ],
      "stateMutability": "view",
      "type": "function"
    },
    {
      "inputs": [
        {
          "internalType": "uint32",
          "name": "sum",
          "type": "uint32"
        },
        {
          "internalType": "uint256",
          "name": "value",
          "type": "uint256"
        },
        {
          "internalType": "uint256",
          "name": "deadline",
          "type": "uint256"
        },
        {
          "internalType": "uint8",
          "name": "v",
          "type": "uint8"
        },
        {
          "internalType": "bytes32",
          "name": "r",
          "type": "bytes32"
        },
        {
          "internalType": "bytes32",
          "name": "s",
          "type": "bytes32"
        }
      ],
      "name": "registerAndApprove",
      "outputs": [],
      "stateMutability": "nonpayable",
      "type": "function"
    },
    {
      "inputs": [
        {
          "internalType": "address",
          "name": "",
          "type": "address"
        }
      ],
      "name": "registeredUsers",
      "outputs": [
        {
          "internalType": "uint32",
          "name": "",
          "type": "uint32"
        }
      ],
      "stateMutability": "view",
      "type": "function"
    },
    {
      "inputs": [
        {
          "internalType": "address",
          "name": "recipient",
          "type": "address"
        },
        {
          "internalType": "uint256",
          "name": "amount",
          "type": "uint256"
        },
        {
          "internalType": "uint32",
          "name": "sum",
          "type": "uint32"
        }
      ],
      "name": "transferGhoTokens",
      "outputs": [],
      "stateMutability": "nonpayable",
      "type": "function"
    },
    {
      "inputs": [],
      "name": "verifier",
      "outputs": [
        {
          "internalType": "contract UltraVerifier",
          "name": "",
          "type": "address"
        }
      ],
      "stateMutability": "view",
      "type": "function"
    },
    {
      "inputs": [
        {
          "internalType": "bytes",
          "name": "proof",
          "type": "bytes"
        },
        {
          "internalType": "bytes32[]",
          "name": "y",
          "type": "bytes32[]"
        }
      ],
      "name": "verifyEqual",
      "outputs": [
        {
          "internalType": "bool",
          "name": "",
          "type": "bool"
        }
      ],
      "stateMutability": "view",
      "type": "function"
    }
  ],
  "bytecode": {
    "object": "0x6080604052600080546001600160a01b03191673c4bf5cbdabe595361438f8c6a187bdc330539c6017905534801561003657600080fd5b506040516107663803806107668339810160408190526100559161007a565b600280546001600160a01b0319166001600160a01b03929092169190911790556100aa565b60006020828403121561008c57600080fd5b81516001600160a01b03811681146100a357600080fd5b9392505050565b6106ad806100b96000396000f3fe608060405234801561001057600080fd5b50600436106100625760003560e01c80630e50cee5146100675780632b7ac3f3146100a757806331bc5d6b146100d25780634228a918146100e757806370af3956146100fa5780637d08867e1461010d575b600080fd5b61008d61007536600461045a565b60016020526000908152604090205463ffffffff1681565b60405163ffffffff90911681526020015b60405180910390f35b6002546100ba906001600160a01b031681565b6040516001600160a01b03909116815260200161009e565b6100e56100e0366004610490565b610130565b005b6100e56100f53660046104f0565b610249565b6000546100ba906001600160a01b031681565b61012061011b36600461052c565b610375565b604051901515815260200161009e565b3360009081526001602052604090205463ffffffff16156101985760405162461bcd60e51b815260206004820152601760248201527f5573657220616c7265616479207265676973746572656400000000000000000060448201526064015b60405180910390fd5b33600081815260016020526040808220805463ffffffff191663ffffffff8b161790559054905163d505accf60e01b81526004810192909252306024830152604482018790526064820186905260ff8516608483015260a4820184905260c482018390526001600160a01b03169063d505accf9060e401600060405180830381600087803b15801561022957600080fd5b505af115801561023d573d6000803e3d6000fd5b50505050505050505050565b3360009081526001602052604090205463ffffffff8281169116146102a65760405162461bcd60e51b8152602060048201526013602482015272155cd95c881b9bdd081c9959da5cdd195c9959606a1b604482015260640161018f565b8063ffffffff166000036102f25760405162461bcd60e51b8152602060048201526013602482015272155cd95c881b9bdd081c9959da5cdd195c9959606a1b604482015260640161018f565b6000546040516323b872dd60e01b81523360048201526001600160a01b03858116602483015260448201859052909116906323b872dd906064016020604051808303816000875af115801561034b573d6000803e3d6000fd5b505050506040513d601f19601f8201168201806040525081019061036f91906105f1565b50505050565b600254604051633a94343960e21b815260009182916001600160a01b039091169063ea50d0e4906103b0908990899089908990600401610613565b602060405180830381865afa1580156103cd573d6000803e3d6000fd5b505050506040513d601f19601f820116820180604052508101906103f191906105f1565b9050806104355760405162461bcd60e51b8152602060048201526012602482015271141c9bdbd9881a5cc81b9bdd081d985b1a5960721b604482015260640161018f565b95945050505050565b80356001600160a01b038116811461045557600080fd5b919050565b60006020828403121561046c57600080fd5b6104758261043e565b9392505050565b803563ffffffff8116811461045557600080fd5b60008060008060008060c087890312156104a957600080fd5b6104b28761047c565b95506020870135945060408701359350606087013560ff811681146104d657600080fd5b9598949750929560808101359460a0909101359350915050565b60008060006060848603121561050557600080fd5b61050e8461043e565b9250602084013591506105236040850161047c565b90509250925092565b6000806000806040858703121561054257600080fd5b843567ffffffffffffffff8082111561055a57600080fd5b818701915087601f83011261056e57600080fd5b81358181111561057d57600080fd5b88602082850101111561058f57600080fd5b6020928301965094509086013590808211156105aa57600080fd5b818701915087601f8301126105be57600080fd5b8135818111156105cd57600080fd5b8860208260051b85010111156105e257600080fd5b95989497505060200194505050565b60006020828403121561060357600080fd5b8151801515811461047557600080fd5b6040815283604082015283856060830137600060608583018101829052601f19601f8701168301838103820160208501529081018490526001600160fb1b0384111561065e57600080fd5b8360051b8086608084013701608001969550505050505056fea264697066735822122097b9f86a0d38e86cf8c9970d1bc7feb2c4184f117033259a4c83ddb29957f44564736f6c63430008140033",
    "linkReferences": {}
  },
  "methodIdentifiers": {
    "ghoTokenAddress()": "70af3956",
    "registerAndApprove(uint32,uint256,uint256,uint8,bytes32,bytes32)": "31bc5d6b",
    "registeredUsers(address)": "0e50cee5",
    "transferGhoTokens(address,uint256,uint32)": "4228a918",
    "verifier()": "2b7ac3f3",
    "verifyEqual(bytes,bytes32[])": "7d08867e"
  },
  "id": 1
}